:020000040800F2
:1000000050040020C1010008F30D0008010D000894
:10001000F10D0008CD0200087D110008000000006D
:10002000000000000000000000000000590E000861
:10003000CF02000800000000570E00085B0E000809
:10004000DB010008DB010008DB010008DB01000820
:10005000DB010008DB010008DB010008DB01000810
:10006000DB010008DB010008DB010008DB01000800
:10007000DB010008DB010008DB010008DB010008F0
:10008000DB010008DB010008DB010008DB010008E0
:10009000DB010008DB010008DB010008DB010008D0
:1000A000DB010008DB010008DB010008DB010008C0
:1000B000DB010008DB010008DB010008DB010008B0
:1000C000DB010008DB010008DB010008DB010008A0
:1000D000DB010008DB010008DB010008DB01000890
:1000E000DB010008DB010008DB010008DB01000880
:1000F000DB010008DB010008DB010008DB01000870
:10010000DB010008DB010008DB010008DB0100085F
:10011000DB010008DB010008DB010008DB0100084F
:10012000DB010008DB010008DB010008DB0100083F
:10013000DB010008DB010008DB010008DB0100082F
:10014000DB010008DB010008DB010008DB0100081F
:10015000DB010008DB010008DB010008DB0100080F
:10016000DB010008DB010008DB010008DB010008FF
:10017000DB010008DB010008DB01000800000000D3
:10018000DB010008DB010008DB010008DB010008DF
:10019000DB010008DB010008DB010008DB010008CF
:1001A000DB010008DB010008DB010008DFF80CD0F0
:1001B00000F07AF8004800479D1100085004002024
:1001C0000648804706480047FEE7FEE7FEE7FEE7F1
:1001D000FEE7FEE7FEE7FEE7FEE7FEE7E50E0008C6
:1001E000AD0100082DE9F05F0546002092469B46D0
:1001F00088460646814640241BE02846414647463D
:10020000224600F041F853465A46C01A914110D395
:1002100011461846224600F028F82D1A67EB01080F
:100220004F4622460120002100F01FF817EB00097D
:100230004E41201EA4F10104DFDC484631462A4627
:100240004346BDE8F09FD2B201E000F8012B491E01
:10025000FBD270470022F6E710B513460A46044663
:100260001946FFF7F0FF204610BD202A04DB203A94
:1002700000FA02F1002070479140C2F1200320FAF9
:1002800003F3194390407047202A04DB203A21FAF7
:1002900002F00021704721FA02F3D040C2F120029F
:1002A0009140084319467047064C074D06E0E06848
:1002B00040F0010394E8070098471034AC42F6D3AD
:1002C000FFF778FFF811000818120008FEE77047E2
:1002D000704700002DE9F84FDFF890B100224FF091
:1002E00001084FF0030A4FF00F090BF1040E00BF95
:1002F0000B6808FA02F42340A3426ED14D68022D28
:1003000001D0122D0ED1D50800EB850CDCF8205061
:100310005607F70E09FA07F6B5430E69BE402E439D
:10032000CCF82060066855000F790AFA05FC07F042
:10033000030726EA0C06AF40374307604E68012EDC
:1003400005D0022E03D0112E01D0122E0ED18768B7
:10035000CE6827EA0C07AE403E4386604668A64357
:100360000C79C4F30014944034434460C4688E682C
:1003700024EA0C04AE402643C6604C68E4006FD506
:100380003B4C256845F480452560246822F0030530
:1003900004F480440094374C2E19D6F80848950789
:1003A0002F0F09FA07F5AC43334DA84201D10025C0
:1003B0002EE0324DA84201D1012529E0304DA8425E
:1003C00001D1022524E02F4DA84201D103251FE0D1
:1003D0002D4DA84202D104251AE041E02B4DA84240
:1003E00001D1052514E02A4DA84201D106250FE0D0
:1003F000284DA84201D107250AE0274DA84201D186
:10040000082505E0254DA84201D1092500E00A256F
:10041000BD402543C6F80858DBF800405D464E68ED
:100420009C43F60300D51C432C60DEF80040754663
:100430004E689C43B60300D51C432C600B4D083519
:100440002C684E689C43F60200D51C432C60074D77
:100450000C352C684E689C43B60200D51C432C60BA
:10046000521C102AFFF444AFBDE8F88F003C014055
:1004700044380240003001400000024000040240C5
:1004800000080240000C024000100240001402402C
:1004900000180240001C02400020024000240240DC
:1004A0000148806870470000000000200248816811
:1004B0000278114481607047000000200B4810B59D
:1004C000016841F400710160016841F480610160DC
:1004D000016841F480710160032000F061F80020A0
:1004E00000F006F800F024F8002010BD003C0240A7
:1004F00070B50D4D04464FF47A712878B1FBF0F0D9
:100500000A490968B1FBF0F000F0B2FA48B9102CC2
:1005100007D200222146501E00F022F800206C6015
:1005200070BD012070BD0000000000200C00002004
:100530000A4808B5016841F480410160006800F490
:10054000804000900548001F016841F08051016023
:10055000006800F08050009008BD00004438024060
:10056000F0B40E4B1B680C46C3F30223C3F107051E
:10057000042D00D90425191D072901D2002300E00C
:10058000DB1E012606FA05F1491E214099409E40D6
:10059000761E16403143F0BC00F02CBC0CED00E0A0
:1005A000064900F0070208684FF6FF03184040EACA
:1005B0000220034A10430860704700000CED00E081
:1005C0000000FA052DE9F0470E46050065D0DFF87A
:1005D0001481D8F80000F7B200F00F00B04207D243
:1005E00088F80070D8F8000000F00F00B04254D135
:1005F00028683D4C810712D5400703D5206840F498
:10060000E05020602878000703D5206840F460405F
:1006100020602068A96820F0F00008432060287856
:10062000C0072DD0304968680839012812D0022847
:1006300013D0032811D00968890700292DDA216811
:1006400021F0030101432160FFF72AFF814641F2B7
:10065000883A0EE009688903EFE709688901ECE749
:10066000FFF71EFFA0EB0901514502D90320BDE8A9
:10067000F0872068696800F00C00B0EB810FEFD1C3
:10068000D8F80010404601F00F01B14207D90770B9
:10069000006800F00F00B04201D00120E7E72878A1
:1006A000400705D52068E96820F4E0500843206041
:1006B0002878000706D52068296920F4604040EAC0
:1006C000C100206000F016F82168084AC1F3031148
:1006D000515CC840064908600020FFF709FF002070
:1006E000C5E70000003C024008380240E81100085D
:1006F0000C000020154810B5006810F00C021448DA
:1007000013D04110042A0FD0082A0ED10F4C241FF9
:100710002268236802F03F025B0207D52068C0F31D
:100720008810A0FB010106E0084610BD2168C1F356
:100730008811A1FB00010023FFF754FD2168C1F3DC
:100740000141491C4900B0FBF1F010BD08380240DE
:100750000024F4002DE9F84F050076D02878DFF862
:10076000F8B2BE4CC00749D0DBF800105846C1F3C0
:100770008101012908D00068C0F3810002280AD154
:10078000201D0068400206D52068800336D56868C1
:100790000028E2D032E06868B0F5803F10D0B0F5B4
:1007A000A02F206810D020F480302060206820F432
:1007B000802020606868A0B1FFF772FE06460CE05A
:1007C000206840F48030F4E740F480202060F7E7B0
:1007D000FFF766FE801B642873D820688003F7D576
:1007E0000CE0FFF75DFE064605E000BFFFF758FE90
:1007F000801B6428F0D820688003F7D42878DFF8BD
:10080000608280074FF000093ED5DBF800105846A3
:1008100011F00C0F09D00068C0F3810002280BD141
:100820008D48001F0068400206D42068800715D557
:10083000E868012809D111E0E868B8B10120C8F8DA
:100840000000FFF72DFE064605E002E1FFF728FE57
:10085000801B0228C0D820688007F7D52068296946
:1008600020F0F80040EAC10020600DE0C8F80090D8
:10087000FFF716FE064604E0FFF712FE801B022873
:100880001FD820688007F7D42878000722D5724E39
:10089000744869696C3671B101210160FFF700FE8F
:1008A000074604E0FFF7FCFDC01B022809D83068AA
:1008B0008007F7D50EE0C0F80090FFF7F1FD07467E
:1008C00005E083E0FFF7ECFDC01B02287ED830680E
:1008D0008007F7D42878400768D5DFF87CA1002787
:1008E0000AF1380ADAF80000C0000BD4DAF8001078
:1008F00041F08051CAF80010DAF80000012700F03A
:1009000080500090584E3068C00510D4306840F4D4
:1009100080703060FFF7C4FD009005E0FFF7C0FD78
:100920000099401A022851D83068C005F6D54A4EC1
:10093000A868683601280FD00528306810D020F04C
:1009400001003060306820F004003060A868B8B161
:10095000FFF7A6FD00900FE0306840F00100F4E7DB
:1009600040F004003060F7E7FFF79AFD0099411A64
:1009700041F28830814264D830688007F4D50EE0B7
:10098000FFF78EFD009007E0FFF78AFD0099411AFE
:1009900041F28830814254D830688007F4D42FB1B6
:1009A000DAF8001021F08051CAF80010A869C0B32D
:1009B000DBF80010C1F3810102294AD00228484621
:1009C00007D0C8F86000FFF76BFD00E039E005468E
:1009D0003AE04746C8F86000FFF762FD064604E0CB
:1009E000FFF75EFD801B02282BD820688001F7D41A
:1009F000D5E907010843A96A1C4A490802EB0141ED
:100A00006A6A41EA8211084395F82C1040EA0161B4
:100A10001148001F016001203866FFF741FD0546BF
:100A200005E014E0FFF73CFD401B022809D82068D0
:100A30008001F7D50BE000BFFFF732FD401B022815
:100A400002D90320BDE8F88F20688001F4D400208B
:100A5000F8E70120F6E700000838024000380240BD
:100A600000004742800E4742007000400000FFFF38
:100A700010B5401EB0F1807F01D3012010BD4FF0B2
:100A8000E02460610F21601700F0B4F90020A0613C
:100A900007202061002010BD10B590F83820012AF1
:100AA00025D0012280F83820CA688C6822F4407270
:100AB00022434C6822F4806222430C6822F40062D4
:100AC00022430C6922F4805222434C6922F40052E2
:100AD00022438C6922F48042224322F400410268BE
:100AE00000232143516480F83830002010BD0220DB
:100AF00010BD30B590F83820012A20D0012280F8AE
:100B00003820022380F8393003685C6824F07004D0
:100B10005C6003685C680D682C435C6003689C68DB
:100B200024F080049C6003689C6849680C439C60C6
:100B300080F83920002180F83810084630BD0220A6
:100B400030BD000010B586B0044614216846FFF79A
:100B500081FB0E492068884216D10D4800210268A9
:100B600042F010020260006800F0100005904FF49F
:100B7000206000900220CDE901010120CDE90310A1
:100B800069460448FFF7A6FB06B010BD000001400F
:100B9000303802400010024070B5044690F838002A
:100BA0000D4601280DD0012684F83860022084F813
:100BB000390042B1042A18D0082A2AD00C2A4DD173
:100BC00039E0022070BD206800F022FA20688169B7
:100BD00041F0080181612068816921F0040181618F
:100BE000206881692A69114311E0206800F03CFA0D
:100BF0002068816941F4006181612068816921F484
:100C000080618161206881692A6941EA02218161EC
:100C100024E0206800F05AFA2068C16941F0080118
:100C2000C1612068C16921F00401C1612068C16906
:100C30002A69114311E0206800F078FA2068C16940
:100C400041F40061C1612068C16921F48061C16122
:100C50002068C1692A6941EA0221C16184F83960CA
:100C6000002084F8380070BD10B5040003D094F85B
:100C7000390010B107E0012010BD002084F83800D1
:100C8000204600F00DF8022084F83900211D20686C
:100C900000F052F9012084F83900002010BD000056
:100CA00008B500680649884208D10648016841F045
:100CB00001010160006800F00100009008BD000023
:100CC000000001404438024010B50446006801228B
:100CD00000F092F908492068884202D0074988420A
:100CE00003D1416C41F4004141642068016841F046
:100CF00001010160002010BD00000140000401401E
:100D0000FEE700000D4808B5016841F08001016070
:100D1000016801F080010091016841F0100101605B
:100D2000016801F010010091016841F001010160CA
:100D3000006800F00100009008BD0000303802405B
:100D400010B590B000240E941C2168460F94FFF754
:100D500081FA1C2107A8FFF77DFA24482249016087
:100D60004FF4B461C0E9011440F2E731C0E9031463
:100D70004461FFF779FF08B1FFF7AAFA0E940EA9B4
:100D80001A480F94FFF7B5FE08B1FFF7A1FA6020EB
:100D9000CDE900040294039404940594002269466A
:100DA00012480694FFF7F8FE08B1FFF791FA042203
:100DB00069460E48FFF7F0FE08B1FFF789FA07947D
:100DC000089409944FF400500A94CDE90B4007A908
:100DD00006480D94FFF760FE08B1FFF779FA034863
:100DE000FFF7B0FE10B010BD000001401000002061
:100DF000FEE770470907090E002806DA00F00F0029
:100E000000F1E02080F8141D704700F1E02080F828
:100E100000147047F7EE000A30EE600ABCEEC00A1C
:100E200051B104290DD0082910D00C2903D1006834
:100E300010EE101A01647047006810EE101A41633A
:100E40007047006810EE101A81637047006810EE5A
:100E5000101AC163704770477047FFF727BB000047
:100E600030B593B030216846FFF7F4F914210CA88F
:100E7000FFF7F0F919480025016841F08051016041
:100E8000006800F0805011901548016821F440413D
:100E900041F4804101600068022400F44040119058
:100EA00001200090000401908001CDE9064008AACD
:100EB0000420482182E813000B906846FFF74AFCA3
:100EC0000CA90F2081E83100E002CDE90F050221D5
:100ED0000CA8FFF777FB13B030BD0000403802408C
:100EE000007000401048016841F4700101600F4833
:100EF000016841F0010101600C4A002108321160D3
:100F000002680B4B1A400260031D0A4A1A6002680D
:100F100022F48022026005480C3001600249580624
:100F2000803908607047000088ED00E0003802401A
:100F3000FFFFF6FE10300024F0B50268234B244D6D
:100F4000244E254F254C4FF0804C984209D06045E7
:100F500007D0A84205D0B04203D0B84201D0A04289
:100F600004D122F0700E4A6842EA0E0298421BD069
:100F7000604519D0A84217D0B04215D0B84213D05E
:100F8000A04211D0164DA8420ED0164DA8420BD04B
:100F9000154DA84208D0154DA84205D0144DA842C1
:100FA00002D0144DA84203D122F44075CA682A43E6
:100FB00002608A68C2620A688262984201D0A042D6
:100FC00001D10969016301214161F0BD00000140C7
:100FD0000004004000080040000C004000040140F4
:100FE000004001400044014000480140001800401A
:100FF000001C00400020004010B50123046A8B4013
:101000009C430462036A8A401343036210BD0000DC
:1010100030B5026A22F001020262026A4368846902
:101020000D6824F07304254322F002048A682243E9
:101030000B4CA04202D00B4CA0420BD122F0080472
:10104000CA6823F4407322434C6922F004021C4313
:101050008B6923434360856149684163026230BD07
:10106000000001400004014030B5026A22F0100285
:101070000262026A436884690D6824F4E64444EA23
:1010800005248D6822F0200242EA05120D4DA84287
:1010900002D00D4DA8420ED1CD6822F0800242EA66
:1010A00005124D6923F4406343EA85038D6922F0FC
:1010B000400243EA850343608461496881630262B8
:1010C00030BD0000000001400004014030B5026A5C
:1010D00022F480720262036A4268C46923F40073D6
:1010E00024F073050C682C438D6843EA05230D4DED
:1010F000A84202D00C4DA8420ED1CD6823F4006363
:1011000043EA05234D6922F4405242EA05128D69F3
:1011100023F4806342EA05124260C4614968C163F6
:10112000036230BD000001400004014030B5026A96
:1011300022F480520262046A4268C3690D6823F493
:10114000E64343EA05238D6824F4005444EA053459
:10115000084DA84202D0084DA84204D14D6922F49E
:10116000804242EA85124260C361496801640462B8
:1011700030BD00000000014000040140FEE702E035
:1011800008C8121F08C1002AFAD170477047002012
:1011900001E001C1121F002AFBD170472DED028B27
:1011A000FFF78CF9FFF75CFEFFF7ACFDFFF7C8FD1A
:1011B0009FED0B8A00210B48FFF786FD04210948AB
:1011C000FFF782FDB0EE480A00210648FFF722FE35
:1011D000B0EE480A04210348FFF71CFEEAE70000CE
:1011E0000000FA4310000020000000000000000092
:1011F0000102030406070809181200080000002075
:10120000100000007E1100082812000810000020C5
:10121000400400008E1100080100000010000000D2
:08122000000000000024F400AE
:04000005080001AD41
:00000001FF
